:100000000C942A000C9434000C9434000C943400AA
:100010000C9434000C9434000C9434000C94340090
:100020000C9434000C9434000C9434000C94340080
:100030000C9434000C9434000C9434000C94340070
:100040000C9434000C9434000C9434000C94340060
:100050000C94340011241FBECFE5D8E0DEBFCDBF25
:100060000E9498030C94F0030C940000DF93CF934C
:1000700000D000D000D0CDB7DEB78B836C838B81EE
:100080008695869586958A838B81877089838A81F8
:10009000282F30E03E832D838D819E818130910514
:1000A00009F443C02D813E81223031052CF48D812D
:1000B0009E81009771F0BCC02D813E8122303105B8
:1000C00009F45FC08D819E818330910509F485C05C
:1000D000AFC08C818823A9F4AAE3B0E0EAE3F0E0A2
:1000E0008081482F8981282F30E081E090E0022E26
:1000F00002C0880F991F0A94E2F7809584238C939D
:1001000097C0AAE3B0E0EAE3F0E08081482F89815C
:10011000282F30E081E090E0022E02C0880F991F66
:100120000A94E2F7842B8C9383C08C818823A9F4F2
:10013000A7E3B0E0E7E3F0E08081482F8981282F32
:1001400030E081E090E0022E02C0880F991F0A94EF
:10015000E2F7809584238C936BC0A7E3B0E0E7E3DC
:10016000F0E08081482F8981282F30E081E090E005
:10017000022E02C0880F991F0A94E2F7842B8C93F9
:1001800057C08C818823A9F4A4E3B0E0E4E3F0E055
:100190008081482F8981282F30E081E090E0022E75
:1001A00002C0880F991F0A94E2F7809584238C93EC
:1001B0003FC0A4E3B0E0E4E3F0E08081482F898110
:1001C000282F30E081E090E0022E02C0880F991FB6
:1001D0000A94E2F7842B8C932BC08C818823A9F49A
:1001E000A1E3B0E0E1E3F0E08081482F8981282F8E
:1001F00030E081E090E0022E02C0880F991F0A943F
:10020000E2F7809584238C9313C0A1E3B0E0E1E38F
:10021000F0E08081482F8981282F30E081E090E054
:10022000022E02C0880F991F0A94E2F7842B8C9348
:1002300026960FB6F894DEBF0FBECDBFCF91DF91EB
:100240000895DF93CF9300D000D000D0CDB7DEB7B4
:100250008B836C838B818695869586958A838B812B
:10026000877089838A81282F30E03E832D838D819A
:100270009E818130910509F443C02D813E81223059
:1002800031052CF48D819E81009771F0BCC02D81C9
:100290003E812230310509F45FC08D819E8183301B
:1002A000910509F485C0AFC08C818823A9F4ABE324
:1002B000B0E0EBE3F0E08081482F8981282F30E027
:1002C00081E090E0022E02C0880F991F0A94E2F7A5
:1002D000809584238C9397C0ABE3B0E0EBE3F0E030
:1002E0008081482F8981282F30E081E090E0022E24
:1002F00002C0880F991F0A94E2F7842B8C9383C065
:100300008C818823A9F4A8E3B0E0E8E3F0E08081E1
:10031000482F8981282F30E081E090E0022E02C032
:10032000880F991F0A94E2F7809584238C936BC001
:10033000A8E3B0E0E8E3F0E08081482F8981282F2E
:1003400030E081E090E0022E02C0880F991F0A94ED
:10035000E2F7842B8C9357C08C818823A9F4A5E302
:10036000B0E0E5E3F0E08081482F8981282F30E07C
:1003700081E090E0022E02C0880F991F0A94E2F7F4
:10038000809584238C933FC0A5E3B0E0E5E3F0E0E3
:100390008081482F8981282F30E081E090E0022E73
:1003A00002C0880F991F0A94E2F7842B8C932BC00C
:1003B0008C818823A9F4A2E3B0E0E2E3F0E080813D
:1003C000482F8981282F30E081E090E0022E02C082
:1003D000880F991F0A94E2F7809584238C9313C0A9
:1003E000A2E3B0E0E2E3F0E08081482F8981282F8A
:1003F00030E081E090E0022E02C0880F991F0A943D
:10040000E2F7842B8C9326960FB6F894DEBF0FBECE
:10041000CDBFCF91DF910895DF93CF9300D000D06F
:1004200000D0CDB7DEB78C838C8186958695869576
:100430008B838C8187708A838B81282F30E03E8369
:100440002D834D815E814130510541F18D819E8129
:100450008230910534F42D813E812115310561F002
:1004600052C04D815E814230510551F18D819E8196
:1004700083309105B9F147C0E9E3F0E08081282F8E
:1004800030E08A81882F90E0A90102C055954795F8
:100490008A95E2F7CA018170898335C0E6E3F0E00E
:1004A0008081282F30E08A81882F90E0A90102C046
:1004B000559547958A95E2F7CA018170898323C0D3
:1004C000E3E3F0E08081282F30E08A81882F90E0FC
:1004D000A90102C0559547958A95E2F7CA01817036
:1004E000898311C0E0E3F0E08081282F30E08A8129
:1004F000882F90E0A90102C0559547958A95E2F7AB
:10050000CA0181708983898126960FB6F894DEBF6F
:100510000FBECDBFCF91DF910895DF93CF9300D071
:1005200000D00F92CDB7DEB78B838B8186958695F1
:1005300086958A838B81877089838A81282F30E012
:100540003D832C838C819D818130910549F12C81E3
:100550003D81223031052CF48C819D81009761F022
:100560005AC02C813D812230310571F18C819D81F1
:1005700083309105E9F14FC0ABE3B0E0EBE3F0E08D
:100580008081482F8981282F30E081E090E0022E81
:1005900002C0880F991F0A94E2F784278C933BC00E
:1005A000A8E3B0E0E8E3F0E08081482F8981282FBC
:1005B00030E081E090E0022E02C0880F991F0A947B
:1005C000E2F784278C9327C0A5E3B0E0E5E3F0E0F1
:1005D0008081482F8981282F30E081E090E0022E31
:1005E00002C0880F991F0A94E2F784278C9313C0E6
:1005F000A2E3B0E0E2E3F0E08081482F8981282F78
:1006000030E081E090E0022E02C0880F991F0A942A
:10061000E2F784278C930F900F900F900F900F901C
:10062000CF91DF910895DF93CF930F92CDB7DEB7CF
:1006300089838981882391F5A3E5B0E0E3E5F0E0C3
:10064000808180648C93A3E5B0E0E3E5F0E08081F5
:1006500088608C93A3E5B0E0E3E5F0E08081806200
:100660008C93A3E5B0E0E3E5F0E080818F7E8C938E
:10067000A3E5B0E0E3E5F0E080818B7F8C93A3E518
:10068000B0E0E3E5F0E080818D7F8C93A3E5B0E0FE
:10069000E3E5F0E0808181608C9346C08981813000
:1006A00079F4AFE4B0E0EFE4F0E0808180688C930F
:1006B000AFE4B0E0EFE4F0E080818F7B8C9334C056
:1006C0008981823089F5A3E5B0E0E3E5F0E080813F
:1006D00080648C93A3E5B0E0E3E5F0E0808188607E
:1006E0008C93A3E5B0E0E3E5F0E0808180628C9339
:1006F000A3E5B0E0E3E5F0E080818F7E8C93A3E595
:10070000B0E0E3E5F0E080818B7F8C93A3E5B0E07F
:10071000E3E5F0E080818D7F8C93A3E5B0E0E3E535
:10072000F0E0808181608C930F90CF91DF910895EC
:10073000DF93CF93CDB7DEB7AFE4B0E0EFE4F0E006
:10074000808180688C93AFE4B0E0EFE4F0E08081DA
:100750008F7B8C93AFE4B0E0EFE4F0E080818260C7
:100760008C93AFE4B0E0EFE4F0E080818E7F8C9377
:10077000AEE4B0E0EEE4F0E0808180618C93AEE422
:10078000B0E0EEE4F0E0808188608C938DE161E080
:100790000E943600AEE4B0E0EEE4F0E080818B7FB2
:1007A0008C93AEE4B0E0EEE4F0E0808182608C9364
:1007B000AEE4B0E0EEE4F0E080818E7F8C93E6E47E
:1007C000F0E080E29EE491838083EAE4F0E08CE84C
:1007D0009AE09183808380E090E0CF91DF9108954B
:0407E000F894FFCFBB
:00000001FF
